:100000000C94DA000C9402010C9402010C9402018D
:100010000C9402010C9402010C9402010C94020154
:100020000C9402010C9402010C9402010C94020144
:100030000C9402010C9402010C9402010C94020134
:100040000C94C4180C9402010C9434190C940E19DD
:100050000C9402010C9402010C9402010C94020114
:100060000C9466190C94020100407A10F35A00A017
:10007000724E18090010A5D4E80000E87648170071
:1000800000E40B54020000CA9A3B000000E1F505B1
:10009000000080969800000040420F000000A086FB
:1000A00001000000102700000000E803000000002D
:1000B0006400000000000A000000000001000000D1
:1000C00000002C76D888DC674F0823DFC1DFAE59EB
:1000D000E1B1B796E5E3E453C63AE651997696E87E
:1000E000E6C28426EB898C9B62ED407C6FFCEFBC02
:1000F0009C9F40F2BAA56FA5F490055A2AF75C932D
:100100006B6CF9676DC11BFCE0E40D47FEF520E662
:10011000B500D0ED902E0300943577050080841E45
:10012000080000204E0A000000C80C333333330FA0
:10013000986E12831141EF8D2114893BE65516CF3D
:10014000FEE6DB18D1844B381BF77C1D901DA4BB49
:10015000E424203284725E228100C9F124ECA1E5FE
:100160003D27000000080002010000030407000012
:1001700000000000000000000000250028002B0007
:1001800000000000240027002A00040404040404E2
:100190000404020202020202030303030303010236
:1001A0000408102040800102040810200102040805
:1001B0001020851A11241FBECFEFD8E0DEBFCDBFBF
:1001C00012E0A0E0B1E0E4EFF6E402C005900D9289
:1001D000AE35B107D9F724E0AEE5B2E001C01D921B
:1001E000A134B207E1F710E0CAEDD0E004C02197D6
:1001F000FE010E945F21C93DD107C9F70E94281B5B
:100200000C9478230C9400008CBD9DBD089590E063
:10021000FC01E256FE4F249186579E4FFC018491CB
:10022000882399F090E0880F991FFC01E058FE4F59
:10023000A591B491FC01EA58FE4F859194918FB736
:10024000F894EC91E22BEC938FBF0895FC01818D23
:10025000928D0895089590E0FC01EE59FE4F24918F
:10026000FC01E256FE4F3491FC01E657FE4FE4914B
:10027000EE23C9F0222339F0233001F1A8F4213014
:1002800019F1223029F1F0E0EE0FFF1FEA58FE4F7E
:10029000A591B4918FB7F894EC91611126C0309577
:1002A0003E233C938FBF08952730A9F02830C9F032
:1002B000243049F7809180008F7D03C080918000B9
:1002C0008F7780938000DFCF84B58F7784BDDBCFBD
:1002D00084B58F7DFBCF8091B0008F778093B00085
:1002E000D2CF8091B0008F7DF9CF3E2BDACF3FB7D0
:1002F000F8948091CD029091CE02A091CF02B0915E
:10030000D00226B5A89B05C02F3F19F00196A11D6C
:10031000B11D3FBFBA2FA92F982F8827BC01CD014F
:10032000620F711D811D911D42E0660F771F881FAE
:10033000991F4A95D1F708958F929F92AF92BF92DD
:10034000CF92DF92EF92FF924B015C010E94770106
:100350006B017C010E9477016C197D098E099F0950
:10036000683E734081059105A8F321E0821A910847
:10037000A108B10888EEC80E83E0D81EE11CF11C6C
:1003800081149104A104B10429F7FF90EF90DF904C
:10039000CF90BF90AF909F908F9008952FB7F89413
:1003A0006091C9027091CA028091CB029091CC02F7
:1003B0002FBF089508950895AF92BF92CF92DF9214
:1003C000EF92FF920F931F93CF93DF936C017B010A
:1003D0008B01040F151FEB015E01AE18BF08C0179B
:1003E000D10759F06991D601ED91FC910190F0810E
:1003F000E02DC6010995892B79F7C501DF91CF91D1
:100400001F910F91FF90EF90DF90CF90BF90AF9032
:100410000895FC01538D448D252F30E0842F90E00A
:10042000821B930B541710F0CF96089501970895EF
:10043000FC01918D828D981761F0A28DAE0FBF2FB8
:10044000B11D5D968C91928D9F5F9F73928F90E00E
:1004500008958FEF9FEF0895FC01918D828D98177D
:1004600031F0828DE80FF11D858D90E008958FEFBA
:100470009FEF0895FC01918D228D892F90E0805C83
:100480009F4F821B91098F73992708958CE493E005
:100490000E943A0221E0892B09F420E0822F08957E
:1004A00080E090E0892B29F00E94460281110C9493
:1004B00000000895FC01A48DA80FB92FB11DA35A07
:1004C000BF4F2C91848D90E001968F739927848F74
:1004D000A689B7892C93A089B1898C918370806497
:1004E0008C93938D848D981306C00288F389E02D38
:1004F00080818F7D80830895EF92FF920F931F93E9
:10050000CF93DF93EC0181E0888F9B8D8C8D9813C6
:100510001AC0E889F989808185FF15C09FB7F894D2
:10052000EE89FF896083E889F9898081837080641E
:1005300080839FBF81E090E0DF91CF911F910F9169
:10054000FF90EF900895F62E0B8D10E00F5F1F4F78
:100550000F731127E02E8C8D8E110CC00FB607FC87
:10056000FACFE889F989808185FFF5CFCE010E9415
:100570005A02F1CFEB8DEC0FFD2FF11DE35AFF4F27
:10058000F0829FB7F8940B8FEA89FB8980818062A3
:10059000CFCFCF93DF93EC01888D8823B9F0AA8960
:1005A000BB89E889F9898C9185FD03C0808186FD2E
:1005B0000DC00FB607FCF7CF8C9185FFF2CF80817D
:1005C00085FFEDCFCE010E945A02E9CFDF91CF9196
:1005D0000895FC0120812EBD9B012150310941F07D
:1005E00051810DB407FEFDCF4EB55EBD4193F5CFF1
:1005F00061507109860F971F0DB407FEFDCF2EB510
:10060000FC0120830895E091F602F091F7028081C9
:100610009091F502892B80830895E091F602F09184
:10062000F70290818091F502809589238083089557
:100630008EBD00000DB407FEFDCF8EB50895AF92BC
:10064000BF92CF92DF92EF92FF920F931F93CF93BF
:10065000DF93CDB7DEB728970FB6F894DEBF0FBE95
:10066000CDBF8C017B016A018091F9028333E1F4F3
:100670005801A40EB51EA016B10609F46FC00E9461
:100680000D0380EF0E941803812F0E941803802F12
:100690000E9418030F5F1F4FF70181917F010E9495
:1006A00018030E940303E7CF5B01A40EB51E843339
:1006B000C1F40E940D0319830A838D2D80688B83FA
:1006C000CC8264E070E0CE0101960E94E902AE1493
:1006D000BF0409F441C0F70181917F010E94180312
:1006E000F6CF0E940D030F3F110509F028F419827F
:1006F0000A8384E08B830CC017FD17C019820A831C
:1007000033E0169507953A95E1F7007E0C600B8370
:1007100086E0C816D104A0F5F701DE011496EA15AB
:10072000FB0599F081918D93FACFC80126E096954B
:1007300087952A95E1F7807E19830A830115104C6D
:1007400010F48461D7CF8C61D5CFB6016D5F7F4F38
:10075000CE0101960E94E9020E940303C601289679
:100760000FB6F894DEBF0FBECDBFDF91CF911F91C2
:100770000F91FF90EF90DF90CF90BF90AF900895D2
:1007800063E070E0CE0101960E94E902F7018191D9
:100790007F010E941803AE14BF04C1F7DDCFCF93D1
:1007A000DF931F92CDB7DEB7898341E050E0BE01F1
:1007B0006F5F7F4F90E080E00E941F030F90DF91FA
:1007C000CF91089590E02091F902233339F40C96EB
:1007D000982F990F990F990F80E008954896F8CFB8
:1007E000DA01E091FA02F0E0FE2FEE27E60FF71FA4
:1007F00090E0982F8827A901BD018E0F9F1F0C94B0
:100800001F03CF93DF9300D0CDB7DEB779836A8320
:1008100022E030E0AE014F5F5F4F60E170E00E9488
:10082000F0030F900F90DF91CF910895CF93DF9356
:1008300000D0CDB7DEB779836A8322E030E0AE0125
:100840004F5F5F4F64E070E00E94F0030F900F90E5
:10085000DF91CF910895CF93DF931F92CDB7DEB78D
:100860002091FA0230E0322F2227260F371F90E026
:10087000982F8827498341E050E0BE016F5F7F4F8A
:10088000820F931F0E941F030F90DF91CF91089555
:10089000CF93DF931F92CDB7DEB76983DC01ED9173
:1008A000FC910280F381E02D41E050E0BE016F5FDA
:1008B0007F4F09950F90DF91CF910895CF93DF93EC
:1008C0001F92CDB7DEB76983DC01ED91FC91028008
:1008D000F381E02D41E050E0BE016F5F7F4F09954D
:1008E0000F90DF91CF910895FC019485FB018485E1
:1008F000981303C081E0943008F080E00895CF930E
:10090000DF931F92CDB7DEB76983DC01ED91FC91D7
:100910000280F381E02D41E050E0BE016F5F7F4F28
:1009200009950F90DF91CF9108950895FF920F934D
:100930001F93CF93DF93EB01FC01178A168A2A815C
:10094000211109C02B81211106C02C81211103C066
:100950002D81222301F141155105E9F08A01FC01A5
:10096000F08C80E591E00E940401AE014E5F5F4F84
:1009700024E030E06CE070E08F2D0E94F003B801BD
:100980008F2D0E94010481E090E0DF91CF911F91B3
:100990000F91FF90089580E0F7CFFC018485958545
:1009A0000895FC018489958908952AE931E0FC01C4
:1009B00031832083FB014089518962897389FC015D
:1009C00042835383648375830895DC01ED91FC9128
:1009D000048CF58DE02D099420919F02260F33277A
:1009E000331F21323105ECF420912203FC0190E009
:1009F00080E0243069F082E00895A0919F02219167
:100A0000AC0141585D4FA40FB52FB11D2C93019639
:100A1000861798F380919F02680F60939F0280E091
:100A2000089581E008951092220381E080932103CC
:100A30001092FC0261E082E10E942B0161E083E1FF
:100A40000E942B01E9EBF0E080818E7F8083808122
:100A50008D7F808388E48093B80085E48093BC0018
:100A60000895CF93DF9391E090937E028823B9F0AD
:100A7000C091B800D091BA008091BC008A7B80936D
:100A8000BC0060E082E10E942B0160E083E10E94F3
:100A90002B010E941305D093BA00C093B800DF91D8
:100AA000CF9108958F929F92AF92BF92CF92DF9293
:100AB000EF92FF920F931F93CF93DF93D0914B034D
:100AC000D13208F0D7C0182FC0914A030E94770195
:100AD0006B017C018091220381116BC082E08093C5
:100AE0002203109321038FEF8093200310921F03A2
:100AF000D0931E03AAE2B3E0EEEFF2E080E0D81359
:100B000091C01092FD028091FD02CC0FC82BC093C2
:100B1000FD028091FC02813009F088C01092FC0235
:100B20000E9477016B017C018091FD028093BB00E4
:100B30008091240390912503A0912603B09127036F
:100B4000892B8A2B8B2BA1F00E9477010091240323
:100B50001091250320912603309127036C197D09FC
:100B60008E099F09061717072807390708F442C09E
:100B70008091BC0083FDD8CF85EC8093BC000E949F
:100B800077016B017C0180912203823009F450C00F
:100B9000809120038F3F09F46FC080912003803241
:100BA00009F46CC080912003803309F469C084E0AB
:100BB00026C08091240390912503A0912603B09133
:100BC0002703892B8A2B8B2B09F484CF0E94770172
:100BD0008090240390902503A0902603B0902703D3
:100BE0006C197D098E099F0986169706A806B90615
:100BF00008F070CF809123030E94310585E01092A8
:100C0000290310924B0310922803DF91CF911F917B
:100C10000F91FF90EF90DF90CF90BF90AF909F909B
:100C20008F9008959D9191938F5F69CF85EEA5CFA9
:100C30008091240390912503A0912603B09127036E
:100C4000892B8A2B8B2B09F49ECF0E947701009170
:100C500024031091250320912603309127036C195A
:100C60007D098E099F09061717072807390708F01D
:100C70008ACFC0CF81E0C3CF80E0C1CF82E0BFCFB9
:100C800083E0BDCFE091C7028091C602E81730F43F
:100C9000F0E0E25AFD4F808190E008958FEF9FEFE2
:100CA00008959091C7028091C6022FEF3FEF9817E9
:100CB00048F4E92FF0E0E25AFD4F208130E09F5FD9
:100CC0009093C702C90108958091C6029091C7020E
:100CD000891B990B0895CF92DF92EF92FF920F93A9
:100CE0001F93CF93DF937C01CB018A0120912803CE
:100CF000222389F0EB016B01C40ED51ECC15DD0556
:100D000069F06991D701ED91FC910190F081E02D9E
:100D1000C7010995F3CF642F0E94EC04C801DF914D
:100D2000CF911F910F91FF90EF90DF90CF9008959A
:100D3000CF93DF931F92CDB7DEB76983209128034D
:100D40002223F9F020914B03203258F021E030E0CB
:100D5000FC013383228390E080E00F90DF91CF91FC
:100D6000089580912903E82FF0E0E65DFC4F99811A
:100D700090838F5F8093290380934B0381E090E001
:100D8000ECCF61E0CE0101960E94EC04F7CFFC01AC
:100D9000768765870895DC01ED91FC9102A0F3A1AF
:100DA000E02D099591E089270895862F089581E027
:100DB0008627089521E0FC018485843008F020E036
:100DC000822F08950895089590E080E00895CF93CC
:100DD000DF93EC0188819981009711F00E94012234
:100DE000198218821D821C821B821A82DF91CF9188
:100DF0000895FC0180819181009711F00C940122EB
:100E000008950C940122CF92DF92EF92FF920F93FC
:100E10001F93CF9381E08093280388E480934A0353
:100E20001092290310924B036AEA8FE194E00E942A
:100E3000980681E00E9452056AE070E080E090E050
:100E40000E949C010E9477016B017C01809122032A
:100E5000811164C081E080932203809321039FEF7E
:100E60009093200310921F0380931E038093FD0232
:100E70008091FD0280698093FD028091FC028130A7
:100E800009F096C01092FC020E9477016B017C0170
:100E90008091FD028093BB008091240390912503F3
:100EA000A0912603B0912703892B8A2B8B2BA1F0CD
:100EB0000E947701009124031091250320912603BD
:100EC000309127036C197D098E099F0906171707B2
:100ED0002807390708F443C08091BC0083FDD8CFB0
:100EE00085EC8093BC000E9477016B017C018091AE
:100EF0002203813009F45EC080911F03823008F024
:100F00007BC080911F03AEEFB2E0EEE5F2E090E02F
:100F1000981751F12D9121939F5FFACF809124036F
:100F200090912503A0912603B0912703892B8A2B4A
:100F30008B2B09F48BCF0E94770100912403109131
:100F4000250320912603309127036C197D098E0912
:100F50009F09061717072807390708F077CF8091F0
:100F600023030E94310580E01092C7028093C602DD
:100F70008FE194E00E945106C82F8FE194E00E9417
:100F8000510660E07C2F682B072E000C880B990B14
:100F90000E94E41F20E030E040E85BE30E94432031
:100FA000CF911F910F91FF90EF90DF90CF90089518
:100FB00085EE97CF8091240390912503A09126037D
:100FC000B0912703892B8A2B8B2B09F490CF0E9499
:100FD000770100912403109125032091260330917D
:100FE00027036C197D098E099F0906171707280723
:100FF000390708F07CCFB3CF82E085CFFB010190A9
:101000000020E9F73197AF01461B570BDC01ED914A
:10101000FC910280F381E02D09948F929F92AF9210
:10102000BF92EF92FF920F931F93CF93DF93CDB7B1
:10103000DEB7A1970FB6F894DEBF0FBECDBF7C011F
:10104000FA01CB0119A2223008F42AE08E010F5DCB
:101050001F4F822E912CB12CA12CBF01A501940110
:101060000E943821F901CA016A300CF5605DD8018F
:101070006E938D01232B242B252B79F790E080E0B4
:10108000109721F0BD01C7010E94FE07A1960FB67F
:10109000F894DEBF0FBECDBFDF91CF911F910F91AE
:1010A000FF90EF90BF90AF909F908F900895695CF4
:1010B000DECF8F929F92AF92BF92CF92DF92EF924C
:1010C000FF920F931F93CF93DF937C01EB016C0191
:1010D00082E0C80ED11C4701E5E08E0E911C10E0A5
:1010E00000E0F60141916F0150E070E060E02AE01D
:1010F000CE010E940D085C01E881F9810190F08128
:10110000E02D6EE2CE0109958A0D9B1D080F191F77
:10111000C814D90431F7F701458150E070E060E070
:101120002AE0CE010E940D08800F911FDF91CF9120
:101130001F910F91FF90EF90DF90CF90BF90AF90F5
:101140009F908F9008950F931F93CF93DF93EC019F
:101150000E94FE078C016DED71E0CE010E94FE073A
:10116000800F911FDF91CF911F910F910895CF9321
:10117000DF93DC0114962D913C911597232B79F088
:10118000FB01CD91DC9160817181CE010E945E23D3
:10119000009729F08C1B9D0BDF91CF9108958FEF65
:1011A0009FEFFACF0F931F93CF93DF93EC018881CA
:1011B0009981009759F02A813B812617370730F033
:1011C00081E0DF91CF911F910F9108958B016F5FA7
:1011D0007F4F0E948A22009759F0998388831B834E
:1011E0000A832C813D81232B59F7FC011082E8CF23
:1011F00080E0E7CFEF92FF920F931F93CF93DF939F
:101200006115710541F480E0DF91CF911F910F913D
:10121000FF90EF90089541155105B1F07B01EC016D
:101220000C811D81040F151FB8010E94D20888236C
:1012300051F3288139818C819D81B701820F931FE1
:101240000E9457231D830C8381E0DECFEF92FF9233
:101250000F931F93CF93DF93EC017B018A01BA01B7
:101260000E94D20881110BC0CE010E94E706CE0178
:10127000DF91CF911F910F91FF90EF9008951D8303
:101280000C83B701888199810E945723F0CFFB011D
:1012900001900020E9F73197AF01461B570B0C94E2
:1012A0002609FC0111821082138212821582148297
:1012B000FB0101900020E9F73197AF01461B570B66
:1012C0000C942609AF92BF92CF92DF92EF92FF92D9
:1012D0000F931F93CF93DF9300D000D0CDB7DEB72D
:1012E0008C016B017A018091F9028333E9F45B018F
:1012F0006801C40ED51EC016D106A9F10E940D03C7
:101300008FE00E941803812F0E941803802F0E94F3
:1013100018030F5F1F4F80E00E941803F5018193AF
:101320005F010E940303E7CF843369F50E940D0338
:1013300019830A838F2D8F778B83EC8264E070E0B2
:10134000CE0101960E94E902A70170E060E0C601AB
:101350000E945023E114F10421F0B701C6010E945C
:10136000E9020E940303C7010F900F900F900F90A6
:10137000DF91CF911F910F91FF90EF90DF90CF9071
:10138000BF90AF9008950E940D030F3F110509F023
:1013900030F419820A831B8263E070E0D1CF17FD1D
:1013A0000BC019820A8333E0169507953A95E1F749
:1013B000007E08600B83F0CFC80126E096958795E4
:1013C0002A95E1F7807E19830A830115104C18F4E1
:1013D00080618B83E1CF8861FCCFCF93DF931F9235
:1013E000CDB7DEB72091FA0230E0322F2227260F48
:1013F000371F90E0982F882741E050E0BE016F5FD3
:101400007F4F820F931F0E94620989810F90DF91A5
:10141000CF910895CF93C82F462F61E070E00E94CE
:101420002B0461E070E08C2F0E94ED098111F9CF4F
:10143000CF910895CF93C82F80E591E00E940401D9
:1014400068E070E08C2FCF910C940A0ACF93C82FDC
:1014500080E591E00E94040160E170E08C2FCF9163
:101460000C940A0ACF93DF93EC01888D843020F42A
:101470000E94260A84E0888FDF91CF91089563E06F
:1014800070E00C94ED09CF93C82F80E591E00E94A5
:1014900004018C2FCF910C943F0AEF92FF920F938F
:1014A0001F93CF937C010DEE12E0C0E0F801219173
:1014B00031918F01F701848195812817390729F02F
:1014C000CF5FC43099F780E006C08C2F0E94430A9A
:1014D0008431B1F781E0CF911F910F91FF90EF9090
:1014E0000895CF93DF93EC018C858430D0F40E9473
:1014F000430A843189F0882379F0883169F021E04A
:101500008C3159F4E881F9810084F185E02DCE0118
:10151000099521E0892B09F420E0822FDF91CF91FA
:10152000089580E0FBCFCF92DF92EF92FF92CF93AE
:10153000DF93EC018C85843068F40E941A0A0E94C3
:10154000CE016B017C018C850E94430A811109C088
:1015500084E08C87DF91CF91FF90EF90DF90CF9068
:10156000089561E070E080E090E00E949C010E949C
:10157000CE01AB01BC014C195D096E097F098D8557
:101580009E85B0E0A0E0481759076A077B07D8F2AC
:101590008C850E94260ADCCFCF93FC01C08D80E5AC
:1015A00091E00E94040160E270E08C2F0E940A0A20
:1015B00062E070E08C2F0E94ED0984FD16C062E0AD
:1015C00070E08C2F0E94ED0983FF0AC048E162E0C1
:1015D00070E08C2F0E942B0480E090E0CF91089562
:1015E00080E591E00E940401E3CF40E162E070E019
:1015F0008C2F0E942B0481E0F0CFCF93DF931F92BA
:10160000CDB7DEB741E050E0BE016F5F7F4F90E0A5
:1016100080E00E94620989810F90DF91CF91089547
:10162000CF93DF93C4E1D0E00E94FD0A882361F0EC
:1016300061E070E080E090E00E949C012197A1F7BA
:1016400080E0DF91CF91089581E0FBCFCF92DF92D0
:10165000EF92FF920F931F93CF93DF93CDB7DEB737
:10166000C454D1090FB6F894DEBF0FBECDBFFC0144
:1016700082819381A481B58123968CAF9DAFAEAF5B
:10168000BFAF239721E023962FAF239723964CAD2E
:101690005DAD6EAD7FAD23974BAB5CAB6DAB7EAB01
:1016A00089AF9AAFABAFBCAF8DA79EA7AFA7B8ABC2
:1016B00028AB4DA55EA56FA578A94FA358A769A72C
:1016C0007AA72EAB4BA95CA96DA97EA949A35AA301
:1016D0006BA37CA38B8F9C8FAD8FBE8F4AE951E0AB
:1016E0005C8B4B8B3FEF3D8B3E8B3F8B188E5E8729
:1016F0004D872AA7CFA0D8A4E9A4FAA4CF86D88A78
:10170000E98AFA8A2CA309A11AA12BA13CA1098775
:101710001A872B873C875A8349838B839C83AD83AD
:10172000BE838091FB028111ABC060E372E080E078
:1017300090E00E949C01DFB6F89404E911E038EAD9
:10174000E32E31E0F32E8091F802811122C0F801DE
:101750008491F7019491E82FF0E0EE0FFF1FE0581D
:10176000FE4FA591B4918C91982321F461E08AE019
:101770000E942B018AE00E9407018CB580618CBD1C
:101780008CB580648CBD8DE00E9407018BE00E94C7
:1017900007018091F8028F5F8093F802DFBEF801A5
:1017A0000491E02FF0E0EE0FFF1FEA58FE4F859105
:1017B00094919093F7028093F602F701E490E092FF
:1017C000F5028AE00E9407010E94030380E591E090
:1017D0000E94040184E38093F90280E80E94CF0311
:1017E0000E94100B882309F481C088E00E94CF0377
:1017F0000E94FD0A883009F079C080E10E94CF0381
:101800000E94FD0A803109F071C080E00E94CF0380
:101810000E94FD0A182F811169C041E050E0BE010D
:101820006D5B7F4F8FE190E00E94620924968FAD3F
:101830002497833009F05AC080E48093FA0242E092
:101840006EE170E0812F0E942B0442E06FE170E0B6
:10185000812F0E942B041F5F143089F740E06EE156
:1018600070E0812F0E942B0440E06FE170E0812F37
:101870000E942B041F5F183089F781E08093FB02E0
:1018800080E591E00E94040146E050E064E071E0F0
:1018900089E090E00E941F0344E050E0BE016D5FCC
:1018A0007F4F8FE090E00E941F0344E050E0BE01B4
:1018B000615F7F4F81E090E00E941F0344E050E0B1
:1018C000BE016B5E7F4F85E090E00E941F0381E0C8
:1018D0008C8789859A85AB85BC8580930904909314
:1018E0000A04A0930B04B0930C046FC087E38093A9
:1018F000F90280E80E94CF030E94100B882339F17F
:1019000088E00E94CF030E94FD0A883001F580E143
:101910000E94CF030E94FD0A182F8031C1F480E09D
:101920000E94CF030E94FD0A811111C041E050E0E6
:10193000BE016D5B7F4F89E390E00E9462092496AF
:101940008FAD2497843019F41093FA0296CF83E375
:101950008093F90280E80E94CF030E94100B882335
:1019600091F180E10E94CF030E94FD0A803159F578
:1019700082E10E94CF030E94FD0A823121F580E0BE
:101980000E94CF030E94FD0A81111DC084E0809354
:10199000FA0215E525961FAF259741E050E0BE01FC
:1019A0006C5B7F4F8BE190E00E941F0324961FAF7A
:1019B000249741E050E0BE016D5B7F4F8AE190E0EB
:1019C0000E941F035ACF1092F902CC5BDF4F0FB673
:1019D000F894DEBF0FBECDBFDF91CF911F910F9165
:1019E000FF90EF90DF90CF9008951F93CF93DF93F8
:1019F0001F92CDB7DEB7182F80E591E00E94040159
:101A0000812F0E94E20327E0129FF0011124EF5280
:101A1000FD4F22813381377041E050E0BE016F5F9E
:101A20007F4F820F931F0E94620989810F90DF917F
:101A3000CF911F910895FC01808D843040F4218D59
:101A4000328D232B21F00E94F50C90E008958FEF4A
:101A50009FEF0895CF93DF93FC012485243028F075
:101A60008FEF9FEFDF91CF910895EC010190F0810E
:101A7000E02D0084F185E02D0995892B89F38C8573
:101A80000E94F50C90E0EECFDA01E091FA02F0E06E
:101A9000FE2FEE27E60FF71F90E0982F8827A90169
:101AA000BD018E0F9F1F0C9462098F929F92AF927F
:101AB000BF92CF92DF92EF92FF921F93CF93DF936B
:101AC000CDB7DEB72C970FB6F894DEBF0FBECDBFF3
:101AD0002091F90214E0222329F16B017C0180E5B9
:101AE00091E00E9404015E0127E0A20EB11C4501B5
:101AF00010E0812F0E943F0AF40181934F01882357
:101B000049F11F5F1430A9F710E0F50181915F01E1
:101B10008D31D9F08831C9F08A518230B0F01F5F21
:101B2000143099F7812F2C960FB6F894DEBF0FBEB4
:101B3000CDBFDF91CF911F91FF90EF90DF90CF90BD
:101B4000BF90AF909F908F90089560E170E0812FDB
:101B50000E940A0AA12EB12CF501EE0FFF1FE351DE
:101B6000FD4F1182108283EE93E00197F1F742E876
:101B700070E060E0812F0E942B044FEF62E070E084
:101B8000812F0E942B04B601C114D10491F48091DD
:101B900002019091030101968115F0EC9F0708F472
:101BA0005CC09093030180930201609102017091E7
:101BB0000301812F0E94160486E0E0E1F1E0DE01DE
:101BC000119601900D928A95E1F7F70183818F7745
:101BD0008C8384818D8385818E83A7014E5F5F4FC7
:101BE00024E030E06CE070E0812F0E94F003B60149
:101BF000812F0E94010426E030E0AE014F5F5F4F6D
:101C000066E070E0812F0E94F00361E070E0812FB8
:101C10000E940A0A27E02A9DC0012B9D900D1124E5
:101C20009C012F523D4F7901F9011182108222E06F
:101C300030E0AE01455F5F4F68E270E0812F0E94A7
:101C4000440D8B859C85982789279827F7019383D6
:101C5000828316821582148265CF80E090ECA1CF3A
:101C6000CF92DF92EF92FF920F931F93CF93DF9368
:101C700000D000D000D0CDB7DEB78C016B017A0167
:101C8000FC01808D843010F40E94260A8AE991E0DC
:101C90009A838983F60182819381A481B5818B83A4
:101CA0009C83AD83BE83B701CE0101960E94550D82
:101CB000F801808F8430A0F4F586E486128E118EB0
:101CC00081E026960FB6F894DEBF0FBECDBFDF9140
:101CD000CF911F910F91FF90EF90DF90CF900895DB
:101CE00080E0EFCFAF92BF92CF92DF92EF92FF9260
:101CF0000F931F93CF93DF9300D000D000D0CDB7C8
:101D0000DEB7082F6B0180E591E00E9404019E017F
:101D10002F5F3F4F7901590110E0812F0E943F0A48
:101D2000F50181935F01882341F11F5F1430A9F70A
:101D300010E0F70181917F018D31D1F08831C1F040
:101D40008A518230A8F01F5F143099F7812F2696B0
:101D50000FB6F894DEBF0FBECDBFDF91CF911F91BC
:101D60000F91FF90EF90DF90CF90BF90AF900895CC
:101D700060E170E0812F0E940A0AE12EF12CF70148
:101D8000EE0FFF1FE351FD4F1182108283EE93E0AF
:101D90000197F1F7402F70E060E0812F0E942B0443
:101DA0004FEF62E070E0812F0E942B04B601CD2836
:101DB00089F4809102019091030101968115F0EC64
:101DC0009F0798F1909303018093020160910201B3
:101DD00070910301812F0E94160461E070E0812F51
:101DE0000E940A0A27E02E9DC0012F9D900D11240C
:101DF0009C012F523D4F7901F9011182108222E09E
:101E000030E0AE014B5F5F4F68E270E0812F0E94CF
:101E1000440D8D819E81982789279827F701938308
:101E2000828316821582148291CF80E090ECCACF13
:101E3000CF92DF92EF92FF921F93CF93DF93EC014B
:101E40007B016A018C85843048F40E94430A882310
:101E500019F08C850E941A0A84E08C87F701828130
:101E60009381A481B5810097A105B10551F490E05B
:101E700080E0DF91CF911F91FF90EF90DF90CF90A6
:101E800008958F3F9F4FAF4FBF4F89F38091F90265
:101E9000811103C084E08C87EACF70E060E081E2CA
:101EA0000E94720E182F8C87843008F780E591E02D
:101EB0000E940401A7014E5F5F4F24E030E06CE018
:101EC00070E0812F0E94F003B601812F0E9401046F
:101ED00064E070E0812F0E940A0A0E94CE016B012B
:101EE0007C018C850E94430A873109F18C31F9F01D
:101EF000882309F4BCCF0E94CE01AB01BC014C1970
:101F00005D096E097F098D859E85B0E0A0E084178C
:101F10009507A607B70738F061E070E080E090E031
:101F20000E949C01DECF8C850E94260AB3CF81E0FF
:101F300090E09FCF0F931F93CF93DF93EC018B0122
:101F4000888D843010F40E94260A8091F902811154
:101F500007C094E0988FDF91CF911F910F91089562
:101F6000B80182E00E94720E888F843030F41D87A1
:101F70000C871A8E198E81E0EECF80E0ECCF0F93A4
:101F80001F93CF932091F902222349F18C01FC0188
:101F90006481758181E20E94720EC82F8430F8F44A
:101FA00080E591E00E9404018C2F0E943F0A83315A
:101FB00031F08C2FCF911F910F910C941A0A62E08F
:101FC00070E08C2F0E940A0AF80184819581EC2F21
:101FD000F0E0EE0FFF1FE351FD4F91838083CF911F
:101FE0001F910F9108957F928F929F92AF92BF920F
:101FF000CF92DF92EF92FF920F931F93CF93DF93D5
:1020000000D0CDB7DEB7782E8B014A01590122E00E
:1020100030E0AE014F5F5F4F64E270E00E94440D1C
:10202000E980FA80FE24EF24FE24E00EF11E9701E1
:1020300037704091F902072D10E0433309F042C098
:10204000085F1F4F102F0027110F110F110FC9012B
:10205000800F911F4733C9F1A9014A0D5B1D413023
:10206000584098F160E078E06B01C21AD30AA601EB
:10207000B4010E941F03A5014C195D09B4016C0D48
:102080007D1DC8010E941F03EA0CFB1CF982EA8235
:1020900022E030E0AE014F5F5F4F64E270E0872DD9
:1020A0000E94F0030F900F90DF91CF911F910F913D
:1020B000FF90EF90DF90CF90BF90AF909F908F9068
:1020C0007F900895005F1F4FBDCFA501B401DACF07
:1020D000EF92FF921F93CF93DF9300D0CDB7DEB77F
:1020E000182F22E030E0AE014F5F5F4F60E270E0FA
:1020F0000E94440DE980FA80FE24EF24FE2422E0B1
:1021000030E0AE014F5F5F4F60E270E0812F0E94D0
:10211000440D89819A81982789279827E816F9061E
:1021200089F487E0189FF0011124EF52FD4FF582EA
:10213000E482C7010F900F90DF91CF911F91FF9024
:10214000EF9008957C01DBCF1F93CF93DF93182F7F
:1021500080E591E00E940401812F0E946810EC014B
:10216000812F0E943F0A873121F08C3111F0D0E09D
:10217000C0E0CE01DF91CF911F910895CF93DF93FF
:10218000EC018C85843060F40E94430A873111F0A1
:102190008C3131F48C850E94A4108115984088F30D
:1021A000DF91CF910895FC018485843010F40C9464
:1021B000A41090E080E00895CF92DF92EF92FF921A
:1021C0001F93CF93DF93182F7B01EA0141305840D2
:1021D00010F0C0E0D8E080E591E00E940401812F7A
:1021E0000E9468106C01812F0E943F0A873111F014
:1021F0008C3121F5CC16DD0670F380E591E00E946C
:1022000004019E01A70170E060E0812F0E94F30F9E
:1022100060E270E0812F0E940A0A62E070E0812F84
:102220000E94ED0984FD0DC0812F0E943F0A882382
:10223000B9F080E591E00E940401EFCFD0E0C0E06A
:10224000DCCF40E162E070E0812F0E942B04CE01E0
:10225000DF91CF911F91FF90EF90DF90CF90089585
:10226000D0E0C0E0F4CF0F931F93CF93DF938C01A6
:10227000EA01FC018485843048F40E94DC10892B3B
:1022800039F481E090E0F80193838283D0E0C0E0EC
:10229000CE01DF91CF911F910F9108959F92AF9240
:1022A000BF92CF92DF92EF92FF920F931F93CF9343
:1022B000DF938C015B01942EE52EFC01C688D78844
:1022C000F08C80E591E00E9404018F2D0E9468103F
:1022D000C92DDE2D8C179D0708F4EC019E01A50188
:1022E000B6018F2D0E94F30FF801868997898C0F14
:1022F0009D1F978B868BCE01DF91CF911F910F9100
:10230000FF90EF90DF90CF90BF90AF909F90089597
:10231000FF920F931F93CF93DF9300D0CDB7DEB71B
:10232000F82E22E030E0AE014F5F5F4F66E270E0D2
:102330000E94440D09811A8110270127102722E0ED
:1023400030E0AE014F5F5F4F66E270E08F2D0E947C
:10235000440D89819A81982789279827081719079A
:1023600049F4C8010F900F90DF91CF911F910F9109
:10237000FF9008958C01E3CF1F93CF93DF93182F25
:1023800087E0189FE0011124CF52DD4F88819981A9
:10239000009761F480E591E00E940401812F0E9482
:1023A00088112E81821B910999838883DF91CF91B7
:1023B0001F910895AF92BF92CF92DF92EF92FF925A
:1023C0000F931F93CF93DF93EC017B018091F90270
:1023D000811120C01B821A8288EE93E0A0E0B0E059
:1023E0008C839D83AE83BF838AE191E09983888348
:1023F00084E08C8788EE93E09E878D87CE01DF9105
:10240000CF911F910F91FF90EF90DF90CF90BF90F1
:10241000AF9008958DEEC82E82E0D82E10E094E0A3
:10242000B92EA12CD6012D913D916D01F70184812A
:1024300095812817390791F4812F0E94430A082FAC
:10244000873111F08C3139F5812F0E94BC11892B15
:1024500059F50C3119F4812F0E941A0A1F5F1430AC
:1024600009F7A11008C0D701ED91FC910084F18516
:10247000E02DC70109951B821A8288EE93E0A0E047
:10248000B0E08C839D83AE83BF838AE191E0998322
:102490008883BC86AFCF843149F08111DFCFF6014C
:1024A000329711821082DACFB12ED8CFAA24A3940A
:1024B000D5CF8F929F92AF92BF92CF92DF92EF9241
:1024C000FF921F93CF93DF93CDB7DEB72F970FB651
:1024D000F894DEBF0FBECDBF5C014B017A01809145
:1024E000F9028823A1F1B501CE0101960E94DA110B
:1024F0008DEEC82E82E0D82E10E0F60121913191A8
:102500006F01F501848195812817390751F4812FD6
:102510000E94430A873129F4A701B401812F0E9448
:10252000DC101F5F143049F7C7012F960FB6F894DF
:10253000DEBF0FBECDBFDF91CF911F91FF90EF9017
:10254000DF90CF90BF90AF909F908F900895F12C27
:10255000E12CEACFFC018485843010F40C94BC118A
:1025600090E080E008954F925F927F928F929F92C9
:10257000AF92BF92CF92DF92EF92FF920F931F9391
:10258000CF93DF9300D0CDB7DEB7782E6B014A0131
:10259000A82EB12C27E0829FC0011124FC01EF522C
:1025A000FD4F7F010081118180E591E00E940401CF
:1025B0000815190554F4872D0E948811F70126810A
:1025C0008C01021B1109118300830115110519F5F6
:1025D000872D0E943F0A843159F0882349F001E099
:1025E00010E08C3111F410E000E011950195110913
:1025F000C8010F900F90DF91CF911F910F91FF9025
:10260000EF90DF90CF90BF90AF909F908F907F9092
:102610005F904F900895801691060CF4840187E036
:102620008A9DF0018B9DF00D1124EF52FD4FE28049
:10263000F380C114D10451F12701F7E05F22872D07
:102640000E94E203840D951D2091F902273309F4BD
:1026500053C09801240D351D2130384008F44CC07A
:1026600020E038E0490184189508A401B6010E94D1
:1026700062092601480C591C6801C818D908872D21
:102680000E94E203A601B2010E946209E00EF11E5F
:1026900087E08A9DF0018B9DF00D1124EF52FD4FD4
:1026A000F382E28220813181201B310B3183208330
:1026B0008681800F912F911D8A3F910510F4232B65
:1026C000F1F487E08A9DF0018B9DF00D1124EF520B
:1026D000FD4F1682F982EA8222E030E0AE014F5FC0
:1026E0005F4F68E270E0872D0E94F00360E470E0C5
:1026F000872D0E940A0A7CCFA801B601C5CF868328
:1027000077CFCF93DF93FC01218D328D21153105D9
:1027100029F48FEF9FEFDF91CF910895EC01808D29
:102720004217530708F0A9010E94B31218161906A0
:1027300084F7298D3A8D281B390B3A8F298FEBCFDF
:102740000F931F93CF93DF931F92CDB7DEB7FC019A
:10275000218D328D232B41F48FEF9FEF0F90DF916E
:10276000CF911F910F9108958C0141E050E0BE017F
:102770006F5F7F4FFC01808D0E94B31218161906FF
:102780005CF7F801818D928D0197928F818F8981FD
:1027900090E0E4CFCF93DF931F92CDB7DEB741E057
:1027A00050E0BE016F5F7F4FFC0184850E94B31231
:1027B0001816190634F4898190E00F90DF91CF91BB
:1027C00008958FEF9FEFF9CFFC018485843010F4DA
:1027D0000C94B31290E080E008950F931F93CF9371
:1027E000DF9300D0CDB7DEB7FC0124852430E0F4C0
:1027F0008C0180E591E00E94040122E030E0AE010E
:102800004F5F5F4F60E170E0F80184850E94440DE6
:1028100089819A819827892798270F900F90DF91B7
:10282000CF911F910F91089590E080E0F6CF0F9324
:102830001F93CF93DF9300D0CDB7DEB7FC01248583
:102840002430E0F48C0180E591E00E94040122E054
:1028500030E0AE014F5F5F4F64E070E0F8018485C7
:102860000E94440D89819A819827892798270F9083
:102870000F90DF91CF911F910F91089590E080E02C
:10288000F6CF0F931F93CF93DF93CDB7DEB7289783
:102890000FB6F894DEBF0FBECDBF8C01D80159969C
:1028A0004D915C915A974115510551F0ED91FC9174
:1028B000048CF58DE02D70E060E0C8010995EECF45
:1028C000F801808D0E94BC11892BB1F148E050E0E5
:1028D000BE016F5F7F4FD80158968C910E94B31252
:1028E00018161906F4F4D801509684E0FE013196CA
:1028F00001900D928A95E1F78D8190E0982F8827BD
:102900002E81820F911DF801958B848B8F81282F4A
:1029100030E0322F22278885820F932F911D928FCE
:10292000818F28960FB6F894DEBF0FBECDBFDF9122
:10293000CF911F910F91089590E080E0F2CF4F92D8
:102940005F926F927F928F929F92AF92BF92CF923F
:10295000DF92EF92FF920F931F93CF93DF93CDB748
:10296000DEB763970FB6F894DEBF0FBECDBF7C0114
:102970006B013A01FB0120E090E080E06AE03191D8
:10298000332309F461C040ED430F4A3008F04DC0D5
:10299000689FA001699F500D1124CA01C097830F41
:1029A000911D37FD9A958F3F910549F340F3F7014B
:1029B0004281538164817581809115049091160440
:1029C000A0911704B0911804481759076A077B07AC
:1029D00009F40DC28701085F1F4F0E94CE016F707E
:1029E00077277C5FC8010E949A0F813009F004C2EA
:1029F0008AE991E09A838983F70182819381A48196
:102A0000B5818B839C83AD83BE8345E350E0BE01DB
:102A10006F5F7F4FC8010E949604892BA9F5D12CC6
:102A2000C12CC8010E94320A17C03E3209F0BFCF44
:102A3000233009F4BCCFD301A20FB11D12968C93A1
:102A40002F5F90E080E09BCF233009F0B0CFF301FF
:102A50008583CC24C394D12CC60163960FB6F89419
:102A6000DEBF0FBECDBFDF91CF911F910F91FF90C1
:102A7000EF90DF90CF90BF90AF909F908F907F901E
:102A80006F905F904F9008950E94CE01F701778379
:102A9000668342E050E0B7016A5F7F4FC8010E9441
:102AA0004E1181E090E09A83898342E050E0BE01BC
:102AB0006F5F7F4FC8010E944E1180E091E09A83C2
:102AC000898342E050E0BE016F5F7F4FC8010E94E2
:102AD0004E111A82198242E050E0BE016F5F7F4FB3
:102AE000C8010E944E1142E050E0BE016F5F7F4F6F
:102AF000C8010E944E1142E050E0BE016F5F7F4F5F
:102B0000C8010E944E115601F6018081882301F10F
:102B10006501F60181912F01882311F08E32B1F405
:102B200046018A189B081814190474F48D8641E034
:102B300050E0BE01635F7F4FC8010E944E11A401A7
:102B4000B501C8010E944E115201DECF6201E1CFF2
:102B50001D8641E050E0BE01635F7F4FC8010E94C7
:102B60004E11C12CDD24D394DA82C98242E050E0B8
:102B7000BE016F5F7F4FC8010E944E11DA82C98289
:102B800042E050E0BE016F5F7F4FC8010E944E11CE
:102B9000C8010E94CC0A892B09F441CFF3E0AF2E83
:102BA000B12C230122E0420E511CD4C0F701428116
:102BB000538164817581808D918DA28DB38D48176D
:102BC00059076A077B0709F008C1848D958DC59761
:102BD00009F003C181A192A15DEFC52EDD24DA9435
:102BE0000C970CF4ADC04CE050E0BE016F5F7F4F1E
:102BF000C8010E9481138B819C819827892798277F
:102C00009A8B898BF7014681578129813A81421736
:102C1000530709F0E7C097FFE5C08F7092703BEF54
:102C2000C32EDD24DA94892B09F08AC06F80788462
:102C30007624672476242AEFC22EDD24DA946114E8
:102C4000710409F47DC0D12CC12C8D819E819827FF
:102C500089279827C816D906F8F441E050E0BE014C
:102C6000635F7F4FC8010E9481134D85442331F07B
:102C700050E070E060E0C8010E9481138D858111F1
:102C8000ECCF44E050E070E060E0C8010E948113A6
:102C9000FFEFCF1ADF0AD9CF912C812C41E050E011
:102CA000BE016D5E7F4FC8010E9481134B89842F46
:102CB000807C09F06CC0442331F050E070E060E0AB
:102CC000C8010E9481138B898111E8CF42E050E056
:102CD000BE01615F7F4FC8010E94811342E050E056
:102CE000BE01635F7F4FC8010E94811344E050E042
:102CF00070E060E0C8010E94811342E050E0BE0134
:102D00006F5E7F4FC8010E9481138F859889498922
:102D10005A898115914009F043C0CD84DE84DC24BA
:102D2000CD24DC2481E0C816D104D1F541155440EE
:102D300009F04AC044E050E0B201C8010E9481138A
:102D400021E0A21AB10809F46CCEFFEFCF16DF061E
:102D500009F067CE0E94CE013B014C01C8010E94E0
:102D60004114181619060CF421CF0E94CE016619E1
:102D7000770988099909693873418105910548F5F2
:102D800062E370E080E090E00E949C01E7CF41E0C8
:102D900050E070E060E0C8010E9481131B8A93CF6D
:102DA00054274527542770E060E0C8010E94811332
:102DB000FFEF8F1A9F0A6814790409F06FCF96EF1E
:102DC000C92EDD24DA94BCCFE7EFCE2EDD24DA94D1
:102DD000B7CFCC24CA94DC2CB3CF6EEFC62EDD2443
:102DE000DA94AECF4CEFC42EDD24DA94A9CF8EEF67
:102DF000C82EDD24DA9430CED12CC12C2DCECF922A
:102E0000DF92EF92FF920F931F93CF93DF93CDB793
:102E1000DEB7AF970FB6F894DEBF0FBECDBF7C0113
:102E20006A010AE911E01A8309831C861B8688EE71
:102E300093E0A0E0B0E08D879E87AF87B88B8CE4ED
:102E400091E09A878987188F0F8B198E1A8E1B8EA7
:102E50001C8E84E089A31BA70AA71CA61DA61EA67C
:102E60001FA68091090490910A04A0910B04B091CF
:102E70000C048EA39FA3A8A7B9A78B839C83AD83C3
:102E8000BE8318861F82AE01465D5F4FCE0101965C
:102E90000E949F1481309105B1F4D701ED91FC910E
:102EA0000488F589E02D1DA30CA38CA59DA5AEA5D6
:102EB000BFA58EA39FA3A8A7B9A7A601BE016C5D5D
:102EC0007F4FC7010995AF960FB6F894DEBF0FBECE
:102ED000CDBFDF91CF911F910F91FF90EF90DF90C9
:102EE000CF900895CF92DF92EF92FF920F931F93AE
:102EF000CF93DF93CDB7DEB7AF970FB6F894DEBFB1
:102F00000FBECDBF8C016B017A018AE991E09A83F3
:102F100089831B821C821D821E821C861B8648EEB2
:102F200053E060E070E04D875E876F87788B2CE41C
:102F300031E03A872987988F8F8B198E1A8E1B8ED6
:102F40001C8E24E029A39BA78AA71CA61DA61EA64B
:102F50001FA6D8011C968C91843060F40E94430A0D
:102F6000882321F0F80184850E941A0A84E0D801A0
:102F70001C968C938091090490910A04A0910B04F3
:102F8000B0910C048EA39FA3A8A7B9A78B839C83A1
:102F9000AD83BE8318861F82AE01465D5F4FB601CA
:102FA000CE0101960E949F140097C1F0D801ED91C7
:102FB000FC910684F785E02D8AE991E09DA38CA31E
:102FC0008CA59DA5AEA5BFA58EA39FA3A8A7B9A7B5
:102FD000A701BE016C5D7F4FC8010995AF960FB682
:102FE000F894DEBF0FBECDBFDF91CF911F910F913F
:102FF000FF90EF90DF90CF900895CF93DF93CDB700
:10300000DEB72F970FB6F894DEBF0FBECDBF1C8280
:103010001B8288EE93E0A0E0B0E08D839E83AF83B7
:10302000B8878AE191E09A83898384E08D8788EE6E
:1030300093E09F878E874EEE51E26CEA71E0CE01FD
:1030400001960E947217892BE1F066EB71E0CE01C8
:1030500001960E94FE076EEC71E0CE0101960E947F
:10306000FE0760EE71E0CE0101960E94FE076DED55
:1030700071E0CE0101960E94FE07CE0101960E94EA
:10308000930A2F960FB6F894DEBF0FBECDBFDF9127
:10309000CF910895EF92FF920F931F93CF93DF93F9
:1030A00000D000D0CDB7DEB78C017B01FB01848559
:1030B0008430A8F08AE991E0F8019183808312823C
:1030C000138214821582C8010F900F900F900F90F9
:1030D000DF91CF911F910F91FF90EF90089580E5C0
:1030E00091E00E94040124E030E0AE014F5F5F4FA9
:1030F0006CE070E0F70184850E94440D8AE991E05C
:10310000F8019183808389819A81AB81BC8182831C
:103110009383A483B583D7CF85ED8093BC00809142
:10312000240390912503A0912603B09127030796CD
:10313000A11DB11D23E0B695A795979587952A9572
:10314000D1F72091BC0024FD03C010922203089502
:103150004091240350912503609126037091270329
:10316000452B462B472B69F30097A105B10541F08C
:103170002AE22A95F1F700C00197A109B109E1CF30
:10318000809123030C9431051F920F920FB60F927A
:1031900011242F933F938F939F93AF93BF9380916D
:1031A000C9029091CA02A091CB02B091CC02309199
:1031B000C80223E0230F2D3758F50196A11DB11D3C
:1031C0002093C8028093C9029093CA02A093CB02B5
:1031D000B093CC028091CD029091CE02A091CF020B
:1031E000B091D0020196A11DB11D8093CD029093A4
:1031F000CE02A093CF02B093D002BF91AF919F9126
:103200008F913F912F910F900FBE0F901F901895A7
:1032100026E8230F0296A11DB11DD2CF1F920F9257
:103220000FB60F9211242F933F934F935F936F9399
:103230007F938F939F93AF93BF93EF93FF938CE410
:1032400093E00E945A02FF91EF91BF91AF919F913D
:103250008F917F916F915F914F913F912F910F903F
:103260000FBE0F901F9018951F920F920FB60F92DE
:1032700011242F938F939F93EF93FF93E0915C031F
:10328000F0915D038081E0916203F091630382FD20
:103290001BC09081809165038F5F8F7320916603BF
:1032A000821741F0E0916503F0E0E45BFC4F958FFD
:1032B00080936503FF91EF919F918F912F910F90D4
:1032C0000FBE0F901F9018958081F4CF1F920F9220
:1032D0000FB60F9211242F933F934F935F936F93E9
:1032E0007F938F939F93AF93BF93EF93FF938091BF
:1032F000B900887F803609F44AC0F0F5883209F4B5
:10330000A7C018F5803109F49BC0B8F4882309F4EC
:10331000F9C0883009F494C0FF91EF91BF91AF914B
:103320009F918F917F916F915F914F913F912F91DD
:103330000F900FBE0F901F901895883109F488C028
:10334000803251F78093200314C0803409F49DC06B
:1033500040F48033B9F38833F9F68093200385EC89
:10336000B0C0803509F485C0883509F496C088342A
:1033700099F60E948C18D0CF883909F48CC038F5A2
:10338000883729F050F4883611F0803729F683E029
:10339000809322031092C10257C0883809F47BC081
:1033A000803919F0803809F0B7CF8091C10280329E
:1033B00008F071C0E091C10281E08E0F8093C102DC
:1033C0008091BB00F0E0EF55FD4F80833DC0803B16
:1033D00039F0E0F4803A09F479C0883A09F09CCFDA
:1033E00084E0809322031092A00210929F02E09149
:1033F000C402F091C502099580919F0281110FC00E
:1034000081E080939F0210927F0209C0803C09F402
:10341000A6CF883C09F4A3CF883B09F07DCFE0918B
:10342000A00281E08E0F8093A002F0E0E158FD4FF2
:1034300080818093BB009091A00280919F0229C05F
:103440008091FD028093BB0085EC8093BC0064CF2B
:1034500090911F0380911E03981758F5E0911F0368
:1034600081E08E0F80931F03F0E0E250FD4F8081DA
:10347000E9CFE0911F0381E08E0F80931F038091BD
:10348000BB00F0E0E250FD4F808390911F038091DC
:103490001E039817C8F285E8D8CFE0911F0381E09A
:1034A0008E0F80931F038091BB00F0E0E250FD4F30
:1034B00080838091210381115CCF81E08093FC02A5
:1034C00084EA8093BC001092220326CF85EC80937F
:1034D000BC00109222038091C102803230F4E0914E
:1034E000C102F0E0EF55FD4F10826091C10270E023
:1034F000E091C202F091C30281EA92E00995109234
:10350000C1020ACF1092200334CFECE4F3E013821F
:10351000128248EE53E060E070E044835583668396
:10352000778386E791E09183808385EC90E09587AF
:10353000848784EC90E09787868780EC90E0918B7D
:10354000808B81EC90E0938B828B82EC90E0958B6A
:10355000848B86EC90E0978B868B118E128E138E67
:10356000148EE9EEF3E08AE991E091838083128280
:10357000138214821582EFEEF3E09183808312822E
:10358000138214821582E5EFF3E091838083128227
:10359000138214821582EBEFF3E091838083128211
:1035A000138214821582E1E0F4E091838083128219
:1035B000138214821582EDE0F4E0918380831282FD
:1035C000138214821582E7E0F4E0918380831282F3
:1035D000138214821582E3E1F4E0918380831282E6
:1035E000138214821582E9E1F4E0918380831282D0
:1035F000138214821582EFE1F4E013821282448375
:1036000055836683778328E831E031832083E7E3BD
:10361000F4E0918380831282138214821582E1E3A5
:10362000F4E09183808380EC828388EA838389E15C
:10363000848380E18583EBE2F4E01382128280EAE6
:1036400091E09183808380E99FE19583848308954D
:10365000CF93DF93CDB7DEB7C854D1090FB6F89436
:10366000DEBF0FBECDBF789484B5826084BD84B5C3
:10367000816084BD85B5826085BD85B5816085BD6D
:1036800080916E00816080936E0010928100809125
:1036900081008260809381008091810081608093AD
:1036A0008100809180008160809380008091B100D2
:1036B00084608093B1008091B00081608093B000FD
:1036C00080917A00846080937A0080917A00826091
:1036D00080937A0080917A00816080937A00809153
:1036E0007A00806880937A001092C100E0915C03B8
:1036F000F0915D0382E08083E0915803F0915903DB
:103700001082E0915A03F0915B038FEC808310925A
:103710006403E0916003F091610386E08083E091AF
:103720005E03F0915F03808180618083E0915E039E
:10373000F0915F03808188608083E0915E03F09167
:103740005F03808180688083E0915E03F0915F0376
:1037500080818F7D80831092C7021092C6021092E2
:10376000290310924B030E9413058AED91E0909378
:10377000C5028093C4028BED91E09093C3028093C5
:10378000C2028AE991E09A838983809133049091FF
:103790003404A0913504B09136048B839C83AD83AF
:1037A000BE83CE0101960E94260B8BE294E00E941C
:1037B000BF0F81E08093280388E480934A036CEA7A
:1037C0008FE194E00E9498066CE08FE194E00E9403
:1037D000980681E00E94520580E0A82E80E0B82E75
:1037E00088248394912C0E9403076B017C0120E0C4
:1037F00030E040E051E40E945A2118160CF057C105
:103800008091000190910101019709F05AC10E9435
:10381000FD1710920101109200016FED71E0CE01D1
:103820008D5B9F4F0E9451096BE274E0CE0182963E
:103830000E94DA118EA5843008F028C16FED71E086
:10384000CE018D5B9F4F0E94470911E0CE01829609
:103850000E94710A882309F40FC1CE0182960E944A
:10386000AA12892B99F3CE0182960E94CA13082FBF
:1038700089831A8241E050E0BE016F5F7F4FCE0125
:103880008D5B9F4F0E94FA080A3009F03CC111235A
:10389000E1F264EF71E0CE0101960E945109BE0190
:1038A0006F5F7F4FCE018D5B9F4F0E94B7080496DC
:1038B0006C01CE0101960E94F90668EF71E0CE011D
:1038C00001960E945109BE016F5F7F4FCE018D5B53
:1038D0009F4F0E94B70801977C01CE0101960E947C
:1038E000F906EC14FD0428F49C2D8D2D6701E92EBA
:1038F000F82E6FED71E0CE01CD960E945109299608
:103900000EAD1FAD2997C016D10610F5E016F106D1
:1039100008F487012596EEADFFAD2597E00FF11F66
:10392000F080108225966EAD7FAD25976C0D7D1DC4
:10393000CE01CD966115710509F4DDC00E944709DD
:1039400025968EAD9FAD2597080F191FF801F082BF
:103950006EEF71E0CE0101960E945109BE016F5FCA
:103960007F4FCE01CD960E94B7088C01CE01019603
:103970000E94F90617FD7CC00E94030718AE1FAA1B
:103980001AAE19AE1CAE1BAE8E010F5F1F4F22E0A8
:1039900044E00E94881D009709F4B0C0BC01CE012C
:1039A000C7960E9447096AE072E0CE0101960E9424
:1039B00051094BAD5CAD6FA978ADCE0101960E9467
:1039C000FA08811104C0CE0101960E94E70641E089
:1039D00050E06BE172E0CE0101960E94FA0881117D
:1039E00004C0CE0101960E94E7061AAA19AA1CAAD1
:1039F0001BAA1EAA1DAA69817A816115710531F081
:103A00004D815E81CE01C1960E942609CE010196AC
:103A10000E94F9066DE172E0CE0182960E94A30831
:103A20006DE272E0CE0182960E94A3086CE472E01F
:103A3000CE0182960E94A3086DED71E0CE018296C0
:103A40000E94FE074DA95EA969A97AA9CE018296B6
:103A50000E9433116DED71E0CE0182960E94FE0747
:103A6000CE01C1960E94F906CE01C7960E94F906C2
:103A7000CE01CD960E94F90661E070E080E090E012
:103A80000E949C01CE0182960E94930ACE018D5B1A
:103A90009F4F0E94F906A114B10409F4A4CE0E941C
:103AA0004602882309F49FCE0E9400009CCE20E0AD
:103AB00030E040E050E4C701B6010E94DD1F87FD01
:103AC0009FCE20E030E040E050E4C701B6010E9404
:103AD0005A2187FDA2CE20E030E040E051E4C7014A
:103AE000B6010E94DD1F18160CF497CE90920101CA
:103AF0008092000192CE0E94E70622CFCE01C796A7
:103B00000E94E70650CF0D3009F4A0CE10E09ECE03
:103B1000EF920F931F93CF93DF93E80134E047FDBB
:103B200034E1042E000C550B57FF03C0519541950D
:103B30005109E32E022F242FAE010E94A61DCE01B3
:103B4000DF91CF911F910F91EF900895A9E0B0E020
:103B5000ECEAFDE10C9407216A01F22EB02E102F41
:103B6000FBE3AF2EA01608F41BE31F5F012F27E035
:103B7000AE014F5F5F4F0E94051FBC018981982FE6
:103B80009970913009F43FC09BE2E1FC04C09E2D86
:103B90009170E0FC3AC05E2D5071E82FE87083FF11
:103BA00046C084E0911101C083E0EF2DE81B8F1522
:103BB00008F0E0E0D6018E2F20E2552351F1992341
:103BC00029F0D6019C93C60101966C0196012D5FE8
:103BD0003F4FE2FE24C08EE4D6018C9391E411960F
:103BE0009C93119712968C93D9018E2F90E281119C
:103BF0001BC0E20FF32FF11D10828EEF9FEF29966D
:103C0000ECE00C9423219DE2C6CF90E2C4CF2D932B
:103C100081508111FCCFCE0ED11CE0E0D0CF8EE6DA
:103C2000D6018C9391E6DBCF9D938150E0CF482F56
:103C3000447082FF3DC084E0911101C083E08F1584
:103C400010F4EF2DE81BD6018E2F20E2552309F149
:103C5000992329F0D6019C93C60101966C01960127
:103C60002D5F3F4FE2FE1BC089E4D6018C938EE4AA
:103C700011968C93119786E412968C93D9018E2F0E
:103C800090E2882309F4B5CF9D938150FACF2D930C
:103C900081508111FCCFCE0ED11CE0E0D9CF89E656
:103CA000D6018C938EE611968C93119786E6E4CF1D
:103CB0009B0177FF02C030E020E0A1E0B0E091116D
:103CC00002C0B0E0A0E0F9013196AE0FBF1F8B2C0F
:103CD000912CBB2009F461C05401EFEFAE1ABE0A6B
:103CE000AA0DBB1DFA161B0619F014F04F2D4A1B26
:103CF000511188C0E3FC59C07601A42FB0E2A11194
:103D00004FC0C40ED11C992309F45BC040E0D6011A
:103D10001196F60190836D01552309F448C0012FD7
:103D2000060F9A81582F507184FF03C0913309F414
:103D3000015010160CF047C0093008F008E0EEE220
:103D4000FE2E5B01A01AB10885019194819491081F
:103D50002F3F320729F4D601FC92F60131966F010C
:103D60006217730794F1021713077CF5DB01A21B9E
:103D7000B30BAA24A394B12CAC0EBD1EAA0DBB1D7F
:103D800011968C9121503109D601119628153905CB
:103D9000F4F0F60180836D01DBCFB12CA12CA0CF14
:103DA000F701B1937F01A150AACF9111B0CFD601F5
:103DB000942F50E302C05D9391509111FCCFC40E3B
:103DC000D11C40E0ACCF01E0BACF80E3DBCF62177B
:103DD000730731F4963388F4953311F4552369F061
:103DE000F6018083FD01842F90E2811108C0A40FA9
:103DF000B11D1C9290E080E002CF81E3F1CF91935E
:103E00008150F3CF911183CF8ACF283008F027E07B
:103E10003327DA01990F311D87FD91600096610506
:103E2000710539F432602E5F3D9330E32A95E1F756
:103E300008959F3F30F080387105610509F03C5FBF
:103E40003C5F3D93913008F08068911DDF93CF93E4
:103E50001F930F93FF92EF92192F987F9695E92F5A
:103E600096959695E90FFF27EE53FF4F9927332735
:103E7000EE24FF24A701E70105900894079428F495
:103E8000360FE71EF81E491F511D660F771F881F4A
:103E9000991F0694A1F70590079428F4E70EF81EE1
:103EA000491F561FC11D770F881F991F661F069453
:103EB000A1F70590079428F4F80E491F561FC71F55
:103EC000D11D880F991F661F771F0694A1F70590D3
:103ED000079420F4490F561FC71FD81F990F661F5C
:103EE000771F881F0694A9F784911095177041F0E9
:103EF000D695C79557954795F794E7941A95C1F7C6
:103F0000E8E6F0E0689415901591359165919591EA
:103F100005907FE27395E118F10A430B560BC90B2C
:103F2000D009C0F7E10CF11E431F561FC91FD01D59
:103F30007EF4703311F48A95E6CFE894015030F0A6
:103F4000080F0AF40027021708F4202F2395022FE8
:103F50007A3328F079E37D932A95E9F710C07D93B1
:103F60002A9589F60694979567953795179517942E
:103F7000E118F10A430B560BC90BD00998F02395B1
:103F80007E9173957A3308F070E37C932013B8F731
:103F90007E9170617D9330F0839571E37D9370E342
:103FA0002A95E1F71124EF90FF900F911F91CF9187
:103FB000DF91992787FD909508950E941F2008F4AE
:103FC00081E00895E89409C097FB3EF490958095B0
:103FD000709561957F4F8F4F9F4F9923A9F0F92FCF
:103FE00096E9BB279395F695879577956795B7954D
:103FF000F111F8CFFAF4BB0F11F460FF1BC06F5F33
:104000007F4F8F4F9F4F16C0882311F096E911C044
:10401000772321F09EE8872F762F05C0662371F065
:1040200096E8862F70E060E02AF09A95660F771F79
:10403000881FDAF7880F9695879597F90895990F55
:104040000008550FAA0BE0E8FEEF16161706E80762
:10405000F907C0F012161306E407F50798F0621B83
:10406000730B840B950B39F40A2661F0232B242B58
:10407000252B21F408950A2609F4A140A6958FEF77
:10408000811D811D08950E9456200C94C7200E9416
:10409000B92038F00E94C02020F0952311F00C9434
:1040A000B0200C94B62011240C94FB200E94D82040
:1040B00070F3959FC1F3950F50E0551F629FF0017B
:1040C000729FBB27F00DB11D639FAA27F00DB11D94
:1040D000AA1F649F6627B00DA11D661F829F22271D
:1040E000B00DA11D621F739FB00DA11D621F839FA4
:1040F000A00D611D221F749F3327A00D611D231F7A
:10410000849F600D211D822F762F6A2F11249F57C7
:1041100050409AF0F1F088234AF0EE0FFF1FBB1FCA
:10412000661F771F881F91505040A9F79E3F510589
:1041300080F00C94B0200C94FB205F3FE4F3983E99
:10414000D4F3869577956795B795F795E7959F5F33
:10415000C1F7FE2B880F911D9695879597F90895C5
:1041600097F99F6780E870E060E008959FEF80EC2A
:10417000089500240A9416161706180609060895CD
:1041800000240A9412161306140605060895092E33
:104190000394000C11F4882352F0BB0F40F4BF2BA2
:1041A00011F460FF04C06F5F7F4F8F4F9F4F0895E2
:1041B00057FD9058440F551F59F05F3F71F04795D8
:1041C000880F97FB991F61F09F3F79F087950895BD
:1041D000121613061406551FF2CF4695F1DF08C0DC
:1041E000161617061806991FF1CF869571056105F9
:1041F00008940895E894BB2766277727CB0197F9A1
:1042000008952F923F924F925F926F927F928F927A
:104210009F92AF92BF92CF92DF92EF92FF920F9355
:104220001F93CF93DF93CDB7DEB7CA1BDB0B0FB65F
:10423000F894DEBF0FBECDBF09942A88398848881C
:104240005F846E847D848C849B84AA84B984C884B2
:10425000DF80EE80FD800C811B81AA81B981CE0FA9
:10426000D11D0FB6F894DEBF0FBECDBFED0108958E
:10427000A1E21A2EAA1BBB1BFD010DC0AA1FBB1F6A
:10428000EE1FFF1FA217B307E407F50720F0A21BDC
:10429000B30BE40BF50B661F771F881F991F1A9449
:1042A00069F760957095809590959B01AC01BD0173
:1042B000CF0108950E941F2008F48FEF0895EE0F9C
:1042C000FF1F0590F491E02D09940F931F93CF9356
:1042D000DF938230910510F482E090E0E0913F049A
:1042E000F091400430E020E0B0E0A0E0309799F495
:1042F0002115310509F44AC0281B390B243031053A
:10430000D8F58A819B816115710589F1FB01938341
:104310008283FE0111C040815181028113814817BF
:104320005907E0F04817590799F4109761F0129671
:104330000C93129713961C933296CF01DF91CF9175
:104340001F910F91089500933F0410934004F4CF00
:104350002115310551F04217530738F0A901DB014F
:104360009A01BD01DF01F801C1CFEF01F9CF9093B0
:10437000400480933F04CDCFFE01E20FF31F8193F1
:1043800091932250310939832883D7CF20913D045E
:1043900030913E04232B41F420910C0130910D010A
:1043A00030933E0420933D0420910A0130910B018B
:1043B0002115310541F42DB73EB740910E015091C2
:1043C0000F01241B350BE0913D04F0913E04E217F0
:1043D000F307A0F42E1B3F0B2817390778F0AC0128
:1043E0004E5F5F4F2417350748F04E0F5F1F509305
:1043F0003E0440933D04819391939FCFF0E0E0E031
:104400009CCFCF93DF930097E9F0FC0132971382A2
:104410001282A0913F04B0914004ED0130E020E011
:104420001097A1F420813181820F931F20913D04C8
:1044300030913E042817390709F061C0F0933E041B
:10444000E0933D04DF91CF910895EA01CE17DF0795
:10445000E8F54A815B819E0141155105B1F7E901FB
:10446000FB83EA8349915991C40FD51FEC17FD07CF
:1044700061F4808191810296840F951FE9019983EF
:104480008883828193819B838A83F0E0E0E01296A7
:104490008D919C9113970097B9F52D913C911197AF
:1044A000CD010296820F931F20913D0430913E046E
:1044B0002817390739F6309751F5109240041092B9
:1044C0003F04B0933E04A0933D04BCCFD383C2838A
:1044D00040815181840F951FC817D90761F44E5F41
:1044E0005F4F88819981480F591F518340838A818A
:1044F0009B81938382832115310509F0B0CFF0931E
:104500004004E0933F049ECFFD01DC01C0CF138245
:104510001282D7CFB0E0A0E0E0E9F2E20C940321F0
:104520008C01009751F4CB010E9465218C01C801D8
:10453000CDB7DEB7E0E10C941F21FC01E60FF71FB9
:104540009C0122503109E217F30708F49DC0D901FC
:10455000CD91DC911197C617D70798F0C530D105DA
:1045600030F3CE0104978617970708F3C61BD70BC5
:104570002297C193D1936D937C93CF010E94012226
:10458000D6CF5B01AC1ABD0A4C018C0E9D1EA091CA
:104590003F04B0914004512C412CF12CE12C109798
:1045A00031F580913D0490913E048815990509F0FC
:1045B0005CC04616570608F058C080910A019091D9
:1045C0000B01009741F48DB79EB740910E015091B9
:1045D0000F01841B950BE817F90708F055C0F093FD
:1045E0003E04E0933D04F90171836083A0CF8D9177
:1045F0009C91119712966C90129713967C9013973A
:10460000A815B90559F56C0142E0C40ED11CCA14B5
:10461000DB0420F1AC014A195B09DA011296159707
:1046200080F06282738251834083D9016D937C93C1
:10463000E114F10471F0D7011396FC93EE931297F5
:1046400076CF22968C0F9D1FF90191838083F30111
:10465000EFCFF0934004E0933F0469CF481659062A
:1046600008F42C017D01D3019ACFCB010E94652172
:104670007C01009749F0AE01B8010E944723C801B0
:104680000E940122870153CF10E000E050CFFB01D0
:10469000DC0102C001900D9241505040D8F70895BE
:1046A000DC0101C06D9341505040E0F70895FB01DB
:1046B000DC0101900D920020E1F70895FB0151917A
:1046C0005523A9F0BF01DC014D9145174111E1F7D8
:1046D00059F4CD010190002049F04D914015411150
:1046E000C9F3FB014111EFCF81E090E001970895FC
:0446F000F894FFCF6C
:1046F400010000C0DEADBEEFFEED0000410480000D
:1047040001005E000000000000007F043311D3109C
:10471400BE10AA12CA132A0D180F7217E413930AB3
:10472400710ADA06E2060107D706D5067404CB0639
:1047340017144A18ED13C7060000000048044E1170
:10474400E4062A012601A0131B0D9A0F300E320A2B
:104754009604FF16CC0A41148113E504D504D10450
:10476400CD04000000007C02DC010902C9023A0207
:1047740018022C020000000098066B06E4062A01C9
:1047840064065106420600000000590800000000BB
:104794005E045912E406E306BF0F4D0A3132372E88
:1047A400302E302E3100474554202F616C657274D1
:1047B400617220485454502F312E310D0A00486F35
:1047C40073743A203132372E302E302E310D0A00D8
:1047D400436F6E6E656374696F6E3A20636C6F73BA
:1047E400650D0A0047455400485454502F00746521
:1047F4006D7065726174757261007B2274656D7091
:1048040065726174757261223A20007D00485454C7
:10481400502F312E3120323030204F4B00436F6EF9
:1048240074656E742D547970653A206170706C698A
:10483400636174696F6E2F6A736F6E00436F6E6E7F
:0E484400656374696F6E3A20636C6F73650074
:00000001FF
